:100000000C9462000C948A000C948A000C948A0070
:100010000C948A000C948A000C948A000C948A0038
:100020000C948A000C948A000C948A000C948A0028
:100030000C948A000C948A000C948A000C948A0018
:100040000C94B3000C948A000C9453030C94850315
:100050000C948A000C948A000C948A000C948A00F8
:100060000C948A000C948A00000000080002010031
:100070000003040700000000000000000102040863
:100080001020408001020408102001020408102002
:10009000040404040404040402020202020203032E
:1000A00003030303000000002300260029000000D2
:1000B0000000250028002B0000000000240027007D
:1000C0002A00B50311241FBECFEFD8E0DEBFCDBF9D
:1000D00011E0A0E0B1E0E2E7FAE002C005900D9285
:1000E000AA32B107D9F721E0AAE2B1E001C01D921E
:1000F000A03DB207E1F710E0C4ECD0E004C02297C5
:10010000FE010E943305C23CD107C9F70E94F903E2
:100110000C9437050C94000026E040E855E260E0BE
:1001200070E083E391E00E94F10262E083E00E94CC
:10013000AC0161E085E00C94AC0160E071E083E328
:1001400091E00E94460483E00E94E5014AE050E00D
:10015000BC0183E391E00E94F60468EE73E080E066
:1001600090E00C9420011F920F920FB60F92112471
:100170002F933F938F939F93AF93BF9380912B01C6
:1001800090912C01A0912D01B0912E0130912A0166
:1001900023E0230F2D3720F40196A11DB11D05C0CA
:1001A00026E8230F0296A11DB11D20932A018093FA
:1001B0002B0190932C01A0932D01B0932E018091DF
:1001C0002F0190913001A0913101B091320101963F
:1001D000A11DB11D80932F0190933001A093310197
:1001E000B0933201BF91AF919F918F913F912F9129
:1001F0000F900FBE0F901F9018953FB7F894809105
:100200002F0190913001A0913101B091320126B5BA
:10021000A89B05C02F3F19F00196A11DB11D3FBF3E
:100220006627782F892F9A2F620F711D811D911DCE
:1002300042E0660F771F881F991F4A95D1F70895EE
:10024000CF92DF92EF92FF92CF93DF936B017C010D
:100250000E94FD00EB01C114D104E104F10489F016
:100260000E940E050E94FD006C1B7D0B683E7340D2
:1002700090F381E0C81AD108E108F108C851DC4FB9
:10028000EACFDF91CF91FF90EF90DF90CF9008956C
:10029000789484B5826084BD84B5816084BD85B561
:1002A000826085BD85B5816085BDEEE6F0E0808128
:1002B00081608083E1E8F0E0108280818260808349
:1002C000808181608083E0E8F0E0808181608083CC
:1002D000E1EBF0E0808184608083E0EBF0E08081FE
:1002E00081608083EAE7F0E08081846080838081A0
:1002F0008260808380818160808380818068808348
:100300001092C1000895833081F028F4813099F073
:100310008230A1F008958730A9F08830B9F0843098
:10032000D1F4809180008F7D03C0809180008F7711
:1003300080938000089584B58F7702C084B58F7D47
:1003400084BD08958091B0008F7703C08091B00084
:100350008F7D8093B0000895CF93DF9390E0FC01F0
:10036000E458FF4F2491FC01E057FF4F849188230C
:1003700049F190E0880F991FFC01E854FF4FA591C7
:10038000B49182559F4FFC01C591D4919FB76111E3
:1003900008C0F8948C91209582238C9388818223C5
:1003A0000AC0623051F4F8948C91322F3095832337
:1003B0008C938881822B888304C0F8948C91822B43
:1003C0008C939FBFDF91CF910895CF93DF93282F18
:1003D00030E0F901E859FF4F8491F901E458FF4FEB
:1003E000D491F901E057FF4FC491CC2391F08111D2
:1003F0000E948301EC2FF0E0EE0FFF1FEC55FF4F42
:10040000A591B4912C912D2381E090E021F480E01E
:1004100002C080E090E0DF91CF910895FC01818DD2
:10042000228D90E0805C9F4F821B91098F739927EA
:100430000895FC01918D828D981731F0828DE80F1F
:10044000F11D858D90E008958FEF9FEF0895FC01D9
:10045000918D828D981761F0828DDF01A80FB11DFB
:100460005D968C91928D9F5F9F73928F90E008951F
:100470008FEF9FEF08958BEA93E0892B49F080E09E
:1004800090E0892B29F00E94AB0381110C940000AD
:100490000895FC01848DDF01A80FB11DA35ABF4F41
:1004A0002C91848D90E001968F739927848FA68973
:1004B000B7892C93A089B1898C9180648C93938D9A
:1004C000848D981306C00288F389E02D80818F7D8A
:1004D00080830895CF93DF93EC01888D8823C9F042
:1004E000EA89FB89808185FD05C0A889B9898C913D
:1004F00086FD0FC00FB607FCF5CF808185FFF2CFD8
:10050000A889B9898C9185FFEDCFCE010E9449025F
:10051000E7CFDF91CF910895CF92DF92FF920F93B3
:100520001F93CF93DF931F92CDB7DEB76C0181E0AD
:10053000D60158968C9358975B969C915B975C96E6
:100540008C915C97981307C05096ED91FC91519750
:10055000808185FD2EC0F601038D10E00F5F1F4FD7
:100560000F731127F02EF601848DF81211C00FB60B
:1005700007FCF9CFD6015096ED91FC9151978081FF
:1005800085FFF1CFC60169830E9449026981EBCFE3
:10059000838DE80FF11DE35AFF4F6083D6015B9610
:1005A0000C935B975296ED91FC91539780818062FA
:1005B0000CC0D6015696ED91FC91579760835096EA
:1005C000ED91FC91519780818064808381E090E07F
:1005D0000F90DF91CF911F910F91FF90DF90CF90FF
:1005E0000895BF92CF92DF92EF92FF92CF93DF9365
:1005F000EC016A017B01B22EE889F98982E08083EF
:10060000411581EE580761057105A1F060E079E0C0
:100610008DE390E0A70196010E940F05215031095A
:10062000410951095695479537952795211580E140
:10063000380798F0E889F989108260E874E88EE15B
:1006400090E0A70196010E940F0521503109410950
:1006500051095695479537952795EC85FD8530834B
:10066000EE85FF852083188EEC89FD89B082EA89AA
:10067000FB89808180618083EA89FB898081886031
:100680008083EA89FB89808180688083EA89FB898D
:1006900080818F7D8083DF91CF91FF90EF90DF90FD
:1006A000CF90BF9008951F920F920FB60F92112412
:1006B0002F938F939F93EF93FF93E0914301F091DA
:1006C00044018081E0914901F0914A0182FD12C00C
:1006D000908180914C018F5F8F7320914D01821723
:1006E00051F0E0914C01F0E0ED5CFE4F958F80936E
:1006F0004C0101C08081FF91EF919F918F912F91CB
:100700000F900FBE0F901F9018951F920F920FB66B
:100710000F9211242F933F934F935F936F937F9387
:100720008F939F93AF93BF93EF93FF9383E391E0F6
:100730000E944902FF91EF91BF91AF919F918F91DC
:100740007F916F915F914F913F912F910F900FBECD
:100750000F901F90189583E391E00E940E0221E014
:10076000892B09F420E0822F08951092360110920F
:10077000350188EE93E0A0E0B0E0809337019093DC
:100780003801A0933901B0933A018DE091E0909344
:1007900034018093330185EC90E090934001809385
:1007A0003F0184EC90E0909342018093410180EC02
:1007B00090E0909344018093430181EC90E090930A
:1007C00046018093450182EC90E09093480180932C
:1007D000470186EC90E090934A0180934901109282
:1007E0004C0110924D0110924E0110924F0108954C
:1007F00008950E9448010E94F8030E948C00CBE3F8
:10080000D2E00E949D002097E1F30E943B02F9CFC5
:10081000CF92DF92EF92FF920F931F93CF93DF93CC
:100820006C017A01EB01E60EF71E00E010E0CE1538
:10083000DF0561F06991D601ED91FC910190F081A5
:10084000E02DC6010995080F191FF1CFC801DF91EE
:10085000CF911F910F91FF90EF90DF90CF9008956F
:100860006115710581F0DB010D900020E9F7AD0104
:1008700041505109461B570BDC01ED91FC91028060
:10088000F381E02D099480E090E008950C94300409
:10089000DC01ED91FC910190F081E02D099469E17A
:1008A00071E00C9430048F929F92AF92BF92CF92DE
:1008B000DF92EF92FF920F931F93CF93DF93CDB709
:1008C000DEB7A1970FB6F894DEBF0FBECDBF7C0197
:1008D000C42EE52FCB01D22E19A221E02D1510F048
:1008E0002AE0D22E8E010F5D1F4F8D2C912CA12C52
:1008F000B12C6C2D7E2FA50194010E940F058C2D2B
:10090000D29E80191124015011098A3014F4805D9F
:1009100001C0895CF801808321153105410551052D
:1009200021F0C22EE32FCA01E4CFB801C7010E9413
:100930003004A1960FB6F894DEBF0FBECDBFDF9195
:10094000CF911F910F91FF90EF90DF90CF90BF90CC
:10095000AF909F908F900895CF92DF92EF92FF9289
:100960000F931F93CF93DF93EC016A017B01211555
:10097000310579F4E881F9810190F081E02D642F4F
:10098000DF91CF911F910F91FF90EF90DF90CF906B
:1009900009942A303105E9F477FF1AC06DE20E940C
:1009A00048048C0144275527BA014C195D096E098A
:1009B0007F092AE0CE010E945304800F911FDF912E
:1009C000CF911F910F91FF90EF90DF90CF900895FE
:1009D0002AE0B701A601CE01DF91CF911F910F91BF
:1009E000FF90EF90DF90CF900C9453040F931F93E0
:1009F000CF93DF93EC019A01AB01662757FD609519
:100A0000762F0E94AC048C01CE010E944F04800F0F
:100A1000911FDF91CF911F910F9108950895A1E249
:100A20001A2EAA1BBB1BFD010DC0AA1FBB1FEE1F68
:100A3000FF1FA217B307E407F50720F0A21BB30BB3
:100A4000E40BF50B661F771F881F991F1A9469F72F
:100A500060957095809590959B01AC01BD01CF018B
:100A60000895EE0FFF1F0590F491E02D0994F8947E
:020A7000FFCFB6
:100A72006D61676E65743A2000000000008C020808
:100A8200040E02270219026A020D0A006E616E004C
:0A0A9200696E66006F7666002E00A4
:00000001FF
