:100000000C9453000C947B000C947B000C947B00AC
:100010000C947B000C947B000C947B000C947B0074
:100020000C947B000C947B000C947B000C947B0064
:100030000C947B000C947B000C947B000C947B0054
:100040000C9470010C947B000C94CA030C94FC0378
:100050000C947B000C947B000C947B000C947B0034
:100060000C947B000C947B0001020408102040805B
:1000700001020408102001020408102004040404F2
:100080000404040402020202020203030303030342
:1000900000000000250028002B00000000002400C4
:1000A00027002A002C0411241FBECFEFD8E0DEBFAA
:1000B000CDBF11E0A0E0B1E0EEEAFAE002C00590A9
:1000C0000D92AA37B107D9F722E0AAE7B1E001C043
:1000D0001D92A735B207E1F710E0C6EAD0E004C0F0
:1000E0002297FE010E945105C43AD107C9F70E9428
:1000F00070040C9455050C94000040ED57E060E04E
:1001000070E08AE791E00E94D70020E032EC41E005
:1001100050E06AEB71E08AE791E00E94EA008AE72A
:1001200091E00E94D40060E071E08091AB01909179
:10013000AC010E94BD046AE070E080E090E00E94A3
:10014000E90141E060E08AE791E00E94550161E049
:1001500085E00C944C0208950F931F93CF93DF9387
:10016000EC01662359F00E94BA0169837A838B837C
:100170009C83DF91CF911F910F9108950E94BA0146
:1001800009811A812B813C81601B710B820B930BBF
:10019000623371058105910530F763E070E080E01E
:1001A00090E00E94E901EACF60E00C94AC00FC0111
:1001B00013AA14AA15AA16AA1182128213821482F3
:1001C000411551056105710521F0CB01BA010C946F
:1001D000E9010895FB01BA01A901DC01D296FC9363
:1001E000EE93D19726E0CF010C9468031F93CF9331
:1001F000DF93EC01162F62E171E089A99AA90E94B0
:10020000BD044AE050E0612F89A99AA90E94250502
:1002100069E171E089A99AA90E94BD0462E370E0D6
:1002200080E090E0DF91CF911F910C94E9011F9342
:10023000CF93DF93EC01162F8D81882389F189A953
:100240009AA9DC01ED91FC910480F581E02D0995DE
:10025000892BA9F307C02637310519F12835310557
:1002600009F41D8289A99AA9DC01ED91FC91048011
:10027000F581E02D09951816190694F489A99AA913
:10028000DC01ED91FC910680F781E02D09959C0140
:10029000332723363105F9F6612FCE010E94F6008F
:1002A00083E6DF91CF911F9108950F931F93CF9312
:1002B000DF931F92CDB7DEB78C01662349F081E052
:1002C000F801858360E0C80149830E9417014981D4
:1002D000F80145830F90DF91CF911F910F91089501
:1002E0001F920F920FB60F9211242F933F938F936B
:1002F0009F93AF93BF938091B2019091B301A0916E
:10030000B401B091B5013091B10123E0230F2D3735
:1003100020F40196A11DB11D05C026E8230F029609
:10032000A11DB11D2093B1018093B2019093B3013F
:10033000A093B401B093B5018091B6019091B7013B
:10034000A091B801B091B9010196A11DB11D809392
:10035000B6019093B701A093B801B093B901BF91D2
:10036000AF919F918F913F912F910F900FBE0F9062
:100370001F9018952FB7F8946091B2017091B30156
:100380008091B4019091B5012FBF08953FB7F894C3
:100390008091B6019091B701A091B801B091B901D7
:1003A00026B5A89B05C02F3F19F00196A11DB11DD0
:1003B0003FBF6627782F892F9A2F620F711D811DED
:1003C000911D42E0660F771F881F991F4A95D1F74C
:1003D0000895CF92DF92EF92FF92CF93DF936B015C
:1003E0007C010E94C601EB01C114D104E104F104B7
:1003F00089F00E942C050E94C6016C1B7D0B683E93
:10040000734090F381E0C81AD108E108F108C8519F
:10041000DC4FEACFDF91CF91FF90EF90DF90CF904C
:100420000895789484B5826084BD84B5816084BD6C
:1004300085B5826085BD85B5816085BDEEE6F0E05D
:10044000808181608083E1E8F0E0108280818260B9
:100450008083808181608083E0E8F0E0808181603A
:100460008083E1EBF0E0808184608083E0EBF0E06A
:10047000808181608083EAE7F0E08081846080830E
:1004800080818260808380818160808380818068B8
:1004900080831092C1000895CF93DF9390E0FC0118
:1004A000E859FF4F2491FC01E458FF4F84918823C1
:1004B00049F190E0880F991FFC01E656FF4FA59186
:1004C000B49180579F4FFC01C591D4919FB76111A2
:1004D00008C0F8948C91209582238C938881822384
:1004E0000AC0623051F4F8948C91322F30958323F6
:1004F0008C938881822B888304C0F8948C91822B02
:100500008C939FBFDF91CF910895FC01818D228D47
:1005100090E0805C9F4F821B91098F73992708950B
:10052000FC01918D828D981731F0828DE80FF11DBD
:10053000858D90E008958FEF9FEF0895FC01918DD8
:10054000828D981761F0828DDF01A80FB11D5D9635
:100550008C91928D9F5F9F73928F90E008958FEFA3
:100560009FEF089582E294E0892B49F080E090E0CB
:10057000892B29F00E94220481110C940000089517
:10058000FC01848DDF01A80FB11DA35ABF4F2C9130
:10059000848D90E001968F739927848FA689B789FF
:1005A0002C93A089B1898C9180648C93938D848DD8
:1005B000981306C00288F389E02D80818F7D8083A7
:1005C0000895CF93DF93EC01888D8823C9F0EA89E1
:1005D000FB89808185FD05C0A889B9898C9186FD3C
:1005E0000FC00FB607FCF5CF808185FFF2CFA88939
:1005F000B9898C9185FFEDCFCE010E94C002E7CF73
:10060000DF91CF910895CF92DF92FF920F931F93C6
:10061000CF93DF931F92CDB7DEB76C0181E0D60197
:1006200058968C9358975B969C915B975C968C91AF
:100630005C97981307C05096ED91FC91519780817B
:1006400085FD2EC0F601038D10E00F5F1F4F0F7365
:100650001127F02EF601848DF81211C00FB607FC99
:10066000F9CFD6015096ED91FC915197808185FF8D
:10067000F1CFC60169830E94C0026981EBCF838DEF
:10068000E80FF11DE35AFF4F6083D6015B960C9390
:100690005B975296ED91FC915397808180620CC0DC
:1006A000D6015696ED91FC91579760835096ED9147
:1006B000FC91519780818064808381E090E00F906D
:1006C000DF91CF911F910F91FF90DF90CF90089510
:1006D000BF92CF92DF92EF92FF92CF93DF93EC0124
:1006E0006A017B01B22EE889F98982E08083411595
:1006F00081EE580761057105A1F060E079E08DE3B6
:1007000090E0A70196010E942D0521503109410971
:1007100051095695479537952795211580E138075A
:1007200098F0E889F989108260E874E88EE190E039
:10073000A70196010E942D05215031094109510957
:100740005695479537952795EC85FD853083EE8541
:10075000FF852083188EEC89FD89B082EA89FB89A8
:10076000808180618083EA89FB89808188608083C1
:10077000EA89FB89808180688083EA89FB8980819E
:100780008F7D8083DF91CF91FF90EF90DF90CF90AE
:10079000BF9008951F920F920FB60F9211242F93BE
:1007A0008F939F93EF93FF93E091CA01F091CB0158
:1007B0008081E091D001F091D10182FD12C0908141
:1007C0008091D3018F5F8F732091D401821751F0F4
:1007D000E091D301F0E0E654FE4F958F8093D30172
:1007E00001C08081FF91EF919F918F912F910F9088
:1007F0000FBE0F901F9018951F920F920FB60F9279
:1008000011242F933F934F935F936F937F938F9315
:100810009F93AF93BF93EF93FF938AEB91E00E9476
:10082000C002FF91EF91BF91AF919F918F917F9106
:100830006F915F914F913F912F910F900FBE0F904D
:100840001F9018958AEB91E00E94850221E0892B88
:1008500009F420E0822F08951092BD011092BC018E
:1008600088EE93E0A0E0B0E08093BE019093BF01DA
:10087000A093C001B093C1018EE691E09093BB01BB
:100880008093BA0185EC90E09093C7018093C601F4
:1008900084EC90E09093C9018093C80180EC90E0D3
:1008A0009093CB018093CA0181EC90E09093CD01AD
:1008B0008093CC0182EC90E09093CF018093CE01A5
:1008C00086EC90E09093D1018093D0011092D301F7
:1008D0001092D4011092D5011092D6010895089576
:1008E0000E9411020E946F040E947D00C2EBD2E0C0
:1008F0000E94AB002097E1F30E94B202F9CFCF92A1
:10090000DF92EF92FF920F931F93CF93DF936C01CF
:100910007A01EB01E60EF71E00E010E0CE15DF05D0
:1009200061F06991D601ED91FC910190F081E02D8B
:10093000C6010995080F191FF1CFC801DF91CF91AA
:100940001F910F91FF90EF90DF90CF900895611568
:10095000710581F0DB010D900020E9F7AD014150F8
:100960005109461B570BDC01ED91FC910280F3818C
:10097000E02D099480E090E008950C94A7048F92F4
:100980009F92AF92BF92CF92DF92EF92FF920F931E
:100990001F93CF93DF93CDB7DEB7A1970FB6F8942F
:1009A000DEBF0FBECDBF7C01C42EE52FCB01D22E02
:1009B00019A221E02D1510F02AE0D22E8E010F5D34
:1009C0001F4F8D2C912CA12CB12C6C2D7E2FA501AD
:1009D00094010E942D058C2DD29E80191124015066
:1009E00011098A3014F4805D01C0895CF8018083AC
:1009F000211531054105510521F0C22EE32FCA0111
:100A0000E4CFB801C7010E94A704A1960FB6F894DD
:100A1000DEBF0FBECDBFDF91CF911F910F91FF9031
:100A2000EF90DF90CF90BF90AF909F908F90089500
:100A30002115310541F4DC01ED91FC910190F0812B
:100A4000E02D642F09940C94BF049A01462F50E0C6
:100A500060E070E00C9418050895A1E21A2EAA1B1C
:100A6000BB1BFD010DC0AA1FBB1FEE1FFF1FA2175E
:100A7000B307E407F50720F0A21BB30BE40BF50B5B
:100A8000661F771F881F991F1A9469F760957095E4
:100A9000809590959B01AC01BD01CF010895EE0FAB
:0E0AA000FF1F0590F491E02D0994F894FFCF0C
:100AAE00564D4450565F317C315F564D4450560D75
:100ABE000A00564D4450435F005F564D4450430D5F
:100ACE000A004572726F723A20417474656D7074CB
:100ADE0020746F20736574206120726561642D6FC0
:100AEE006E6C79207661726961626C65206F72201E
:100AFE00646174612074797065206E6F74207375F3
:100B0E0070706F727465640D0A00000000000303BC
:0A0B1E007F0485029E029002E102AE
:00000001FF
