:100000000C945D000C9485000C9485000C94850084
:100010000C9485000C9485000C9485000C9485004C
:100020000C9485000C9485000C9485000C9485003C
:100030000C9485000C9485000C9485000C9485002C
:100040000C949E010C9485000C9457040C94890424
:100050000C9485000C9485000C9485000C9485000C
:100060000C9485000C94850000000008000201003B
:100070000003040700000000000000000102040863
:100080001020408001020408102001020408102002
:10009000040404040404040402020202020203032E
:1000A0000303030300000000250028002B000000CC
:1000B0000000240027002A00B90411241FBECFEF3E
:1000C000D8E0DEBFCDBF11E0A0E0B1E0E2EAFCE0A5
:1000D00002C005900D92A838B107D9F722E0A8E830
:1000E000B1E001C01D92A636B207E1F710E0CAEBFD
:1000F000D0E004C02297FE010E944B06C83BD10706
:10010000C9F70E94FD040C944F060C94000040EDCA
:1001100057E060E070E089E891E00E94050120E886
:1001200035E240E050E069EC71E089E891E00E943E
:10013000180189E891E00E94020160E071E080917D
:10014000BA019091BB010E944A056AE070E080E02C
:1001500090E00E94170241E060E089E891E00E948F
:10016000830126E040E855E260E070E089EC91E030
:100170000E94F50361E084E00E94A30261E085E053
:100180000C94A3026091880184E00E94DC026091DB
:10019000880181E068276093880170E04AE050E0C0
:1001A00089EC91E00E94FA0568EE73E080E090E04F
:1001B0000C9417020F931F93CF93DF93EC016623E8
:1001C00059F00E94E80169837A838B839C83DF91D5
:1001D000CF911F910F9108950E94E80109811A8122
:1001E0002B813C81601B710B820B930B6233710579
:1001F0008105910530F763E070E080E090E00E94B7
:100200001702EACF60E00C94DA00FC0113AA14AAEA
:1002100015AA16AA11821282138214824115510561
:100220006105710521F0CB01BA010C941702089504
:10023000FB01BA01A901DC01D296FC93EE93D197A0
:1002400026E0CF010C94F5031F93CF93DF93EC01CD
:10025000162F62E171E089A99AA90E944A054AE035
:1002600050E0612F89A99AA90E941F0669E171E0F7
:1002700089A99AA90E944A0562E370E080E090E0B3
:10028000DF91CF911F910C9417021F93CF93DF93AF
:10029000EC01162F8D81882389F189A99AA9DC01A7
:1002A000ED91FC910480F581E02D0995892BA9F34E
:1002B00007C02637310519F12835310509F41D82AB
:1002C00089A99AA9DC01ED91FC910480F581E02DCA
:1002D00009951816190694F489A99AA9DC01ED91DB
:1002E000FC910680F781E02D09959C013327233688
:1002F0003105F9F6612FCE010E94240183E6DF91DA
:10030000CF911F9108950F931F93CF93DF931F9267
:10031000CDB7DEB78C01662349F081E0F801858313
:1003200060E0C80149830E9445014981F801458385
:100330000F90DF91CF911F910F9108951F920F920F
:100340000FB60F9211242F933F938F939F93AF93E8
:10035000BF938091C1019091C201A091C301B0915E
:10036000C4013091C00123E0230F2D3720F4019602
:10037000A11DB11D05C026E8230F0296A11DB11DC8
:100380002093C0018093C1019093C201A093C30147
:10039000B093C4018091C5019091C601A091C7019D
:1003A000B091C8010196A11DB11D8093C501909324
:1003B000C601A093C701B093C801BF91AF919F91AF
:1003C0008F913F912F910F900FBE0F901F90189516
:1003D0002FB7F8946091C1017091C2018091C3015F
:1003E0009091C4012FBF08953FB7F8948091C50143
:1003F0009091C601A091C701B091C80126B5A89BF4
:1004000005C02F3F19F00196A11DB11D3FBF662702
:10041000782F892F9A2F620F711D811D911D42E047
:10042000660F771F881F991F4A95D1F70895CF92BD
:10043000DF92EF92FF92CF93DF936B017C010E94DA
:10044000F401EB01C114D104E104F10489F00E942C
:1004500026060E94F4016C1B7D0B683E734090F3EE
:1004600081E0C81AD108E108F108C851DC4FEACF91
:10047000DF91CF91FF90EF90DF90CF900895789427
:1004800084B5826084BD84B5816084BD85B5826099
:1004900085BD85B5816085BDEEE6F0E08081816037
:1004A0008083E1E8F0E01082808182608083808137
:1004B00081608083E0E8F0E0808181608083E1EB0F
:1004C000F0E0808184608083E0EBF0E080818160F7
:1004D0008083EAE7F0E080818460808380818260AD
:1004E0008083808181608083808180688083109296
:1004F000C1000895833081F028F4813099F0823072
:10050000A1F008958730A9F08830B9F08430D1F493
:10051000809180008F7D03C0809180008F778093D1
:100520008000089584B58F7702C084B58F7D84BD27
:1005300008958091B0008F7703C08091B0008F7DC7
:100540008093B0000895CF93DF9390E0FC01E458CE
:10055000FF4F2491FC01E057FF4F8491882349F11C
:1005600090E0880F991FFC01E255FF4FA591B491CF
:100570008C559F4FFC01C591D4919FB7611108C064
:10058000F8948C91209582238C93888182230AC0D1
:10059000623051F4F8948C91322F309583238C93F0
:1005A0008881822B888304C0F8948C91822B8C9351
:1005B0009FBFDF91CF9108950F931F93CF93DF9348
:1005C0001F92CDB7DEB7282F30E0F901E859FF4F71
:1005D0008491F901E458FF4F1491F901E057FF4F5E
:1005E00004910023C9F0882321F069830E947A02D4
:1005F0006981E02FF0E0EE0FFF1FEC55FF4FA59152
:10060000B4919FB7F8948C91611103C01095812328
:1006100001C0812B8C939FBF0F90DF91CF911F91D1
:100620000F910895FC01818D228D90E0805C9F4F99
:10063000821B91098F7399270895FC01918D828DFA
:10064000981731F0828DE80FF11D858D90E00895A7
:100650008FEF9FEF0895FC01918D828D981761F0C7
:10066000828DDF01A80FB11D5D968C91928D9F5FE9
:100670009F73928F90E008958FEF9FEF08958FEA18
:1006800094E0892B49F080E090E0892B29F00E94CA
:10069000AF0481110C9400000895FC01848DDF01EA
:1006A000A80FB11DA35ABF4F2C91848D90E00196E5
:1006B0008F739927848FA689B7892C93A089B189D4
:1006C0008C9180648C93938D848D981306C00288DE
:1006D000F389E02D80818F7D80830895CF93DF9310
:1006E000EC01888D8823C9F0EA89FB89808185FD2A
:1006F00005C0A889B9898C9186FD0FC00FB607FC8B
:10070000F5CF808185FFF2CFA889B9898C9185FFCB
:10071000EDCFCE010E944D03E7CFDF91CF91089539
:10072000CF92DF92FF920F931F93CF93DF931F928D
:10073000CDB7DEB76C0181E0D60158968C935897FF
:100740005B969C915B975C968C915C97981307C025
:100750005096ED91FC915197808185FD2EC0F60158
:10076000038D10E00F5F1F4F0F731127F02EF6015E
:10077000848DF81211C00FB607FCF9CFD601509640
:10078000ED91FC915197808185FFF1CFC60169837E
:100790000E944D036981EBCF838DE80FF11DE35A71
:1007A000FF4F6083D6015B960C935B975296ED9159
:1007B000FC915397808180620CC0D6015696ED91D2
:1007C000FC91579760835096ED91FC9151978081F1
:1007D0008064808381E090E00F90DF91CF911F9142
:1007E0000F91FF90DF90CF900895BF92CF92DF924C
:1007F000EF92FF92CF93DF93EC016A017B01B22E5F
:10080000E889F98982E08083411581EE5807610506
:100810007105A1F060E079E08DE390E0A701960119
:100820000E942706215031094109510956954795E3
:1008300037952795211580E1380798F0E889F989DF
:10084000108260E874E88EE190E0A70196010E94B2
:100850002706215031094109510956954795379589
:100860002795EC85FD853083EE85FF852083188EE6
:10087000EC89FD89B082EA89FB898081806180836F
:10088000EA89FB89808188608083EA89FB8980818D
:1008900080688083EA89FB8980818F7D8083DF91F6
:1008A000CF91FF90EF90DF90CF90BF9008951F926F
:1008B0000F920FB60F9211242F938F939F93EF9364
:1008C000FF93E091D901F091DA018081E091DF019D
:1008D000F091E00182FD12C090818091E2018F5F72
:1008E0008F732091E301821751F0E091E201F0E073
:1008F000E753FE4F958F8093E20101C08081FF9105
:10090000EF919F918F912F910F900FBE0F901F909D
:1009100018951F920F920FB60F9211242F933F93A9
:100920004F935F936F937F938F939F93AF93BF93F7
:10093000EF93FF9389EC91E00E944D03FF91EF91BB
:10094000BF91AF919F918F917F916F915F914F91E7
:100950003F912F910F900FBE0F901F90189589EC2B
:1009600091E00E94120321E0892B09F420E0822FFC
:1009700008951092CC011092CB0188EE93E0A0E094
:10098000B0E08093CD019093CE01A093CF01B093BE
:10099000D0018EE691E09093CA018093C90185EC65
:1009A00090E09093D6018093D50184EC90E09093F1
:1009B000D8018093D70180EC90E09093DA01809386
:1009C000D90181EC90E09093DC018093DB0182EC13
:1009D00090E09093DE018093DD0186EC90E09093AF
:1009E000E0018093DF011092E2011092E301109286
:1009F000E4011092E501089508950E943F020E94CB
:100A0000FC040E948700CFE3D3E00E94C20020973D
:100A1000E1F30E943F03F9CFCF92DF92EF92FF9272
:100A20000F931F93CF93DF936C017A01EB01E60ED6
:100A3000F71E00E010E0CE15DF0561F06991D601E8
:100A4000ED91FC910190F081E02DC6010995080F10
:100A5000191FF1CFC801DF91CF911F910F91FF9026
:100A6000EF90DF90CF9008956115710581F0DB0163
:100A70000D900020E9F7AD0141505109461B570B7D
:100A8000DC01ED91FC910280F381E02D099480E07E
:100A900090E008950C943405DC01ED91FC910190F7
:100AA000F081E02D09946FE171E00C9434058F9290
:100AB0009F92AF92BF92CF92DF92EF92FF920F93ED
:100AC0001F93CF93DF93CDB7DEB7A1970FB6F894FE
:100AD000DEBF0FBECDBF7C01C42EE52FCB01D22ED1
:100AE00019A221E02D1510F02AE0D22E8E010F5D03
:100AF0001F4F8D2C912CA12CB12C6C2D7E2FA5017C
:100B000094010E9427068C2DD29E80191124015039
:100B100011098A3014F4805D01C0895CF80180837A
:100B2000211531054105510521F0C22EE32FCA01DF
:100B3000E4CFB801C7010E943405A1960FB6F8941E
:100B4000DEBF0FBECDBFDF91CF911F910F91FF9000
:100B5000EF90DF90CF90BF90AF909F908F900895CF
:100B6000CF92DF92EF92FF920F931F93CF93DF9379
:100B7000EC016A017B012115310579F4E881F981E5
:100B80000190F081E02D642FDF91CF911F910F91A3
:100B9000FF90EF90DF90CF9009942A303105E9F46F
:100BA00077FF1AC06DE20E944C058C01442755273F
:100BB000BA014C195D096E097F092AE0CE010E9435
:100BC0005705800F911FDF91CF911F910F91FF90DB
:100BD000EF90DF90CF9008952AE0B701A601CE01F3
:100BE000DF91CF911F910F91FF90EF90DF90CF9009
:100BF0000C9457050F931F93CF93DF93EC019A0149
:100C0000AB01662757FD6095762F0E94B0058C01D9
:100C1000CE010E945305800F911FDF91CF911F914C
:100C20000F9108952115310541F4DC01ED91FC91FE
:100C30000190F081E02D642F09940C9457059A01DE
:100C4000462F50E060E070E00C9412060895A1E297
:100C50001A2EAA1BBB1BFD010DC0AA1FBB1FEE1F36
:100C6000FF1FA217B307E407F50720F0A21BB30B81
:100C7000E40BF50B661F771F881F991F1A9469F7FD
:100C800060957095809590959B01AC01BD01CF0159
:100C90000895EE0FFF1F0590F491E02D0994F8944C
:020CA000FFCF84
:100CA200564D4450565F317C315F564D4450560D7F
:100CB2000A00564D4450435F005F564D4450430D69
:100CC2000A004572726F723A20417474656D7074D5
:100CD20020746F20736574206120726561642D6FCA
:100CE2006E6C79207661726961626C65206F722028
:100CF200646174612074797065206E6F74207375FD
:100D020070706F727465640D0A0000000000900339
:100D12000C0512032B031D036E036E616E00696ED8
:080D220066006F7666002E00EA
:00000001FF
