:100000000C9462000C948A000C948A000C948A0070
:100010000C948A000C948A000C948A000C948A0038
:100020000C948A000C948A000C948A000C948A0028
:100030000C948A000C948A000C948A000C948A0018
:100040000C9414020C948A000C94F6040C94280569
:100050000C948A000C948A000C948A000C948A00F8
:100060000C948A000C948A00000000080002010031
:100070000003040700000000000000000102040863
:100080001020408001020408102001020408102002
:10009000040404040404040402020202020203032E
:1000A00003030303000000002300260029000000D2
:1000B0000000250028002B0000000000240027007D
:1000C0002A00580511241FBECFEFD8E0DEBFCDBFF8
:1000D00011E0A0E0B1E0E0EEFDE002C005900D927D
:1000E000A039B107D9F722E0A0E9B1E001C01D9223
:1000F000AD36B207E1F710E0C4ECD0E004C02297BF
:10010000FE010E94EA06C23CD107C9F70E949C0585
:100110000C94EE060C94000040ED57E060E070E0B7
:1001200080E991E00E947B0120E835E240E050E068
:1001300060ED71E080E991E00E948E0180E991E03C
:100140000E94780168E071E08091C1019091C20144
:100150000E94E9056AE070E080E090E00E948D0274
:1001600041E060E080E991E00E94F90126E040E88A
:1001700055E260E070E080ED91E00E94940461E05F
:100180008BE00E94190361E08BE00E94520361E062
:100190008AE00E94190361E08AE00E94520361E054
:1001A00089E00E94190361E089E00E94520362E045
:1001B00086E00E94190362E087E00E94190362E072
:1001C00088E00E94190362E082E00E94190361E066
:1001D00085E00C941903AF92BF92CF92DF92EF9219
:1001E000FF920F931F93CF93DF9324E0E22E21E041
:1001F000F22E01E010E0A12CB12CF70181917F01DA
:10020000882329F160E00E94520390E0C92E91E01A
:10021000D92EE801F4E0CF16F1E0DF0689F0F6010F
:1002200081916F010E948803892B41F45E014AE0AD
:1002300050E0BE0180ED91E00E9499062396EACF3E
:1002400061E0F701319780810E94520310C082E083
:100250000E948803892B59F44AE050E06DE070E079
:1002600080ED91E00E9499068DE0A82EB12C0F5FE1
:100270001F4F0530110509F6C501DF91CF911F9180
:100280000F91FF90EF90DF90CF90BF90AF900895C7
:100290000E94EB0064E670E080E090E00C948D0238
:1002A0000F931F93CF93DF93EC01662359F00E94C5
:1002B0005E0269837A838B839C83DF91CF911F9148
:1002C0000F9108950E945E0209811A812B813C8161
:1002D000601B710B820B930B6233710581059105D5
:1002E00030F763E070E080E090E00E948D02EACF9A
:1002F00060E00C945001FC0113AA14AA15AA16AAD6
:100300001182128213821482411551056105710513
:1003100021F0CB01BA010C948D020895FB01BA01C2
:10032000A901DC01D296FC93EE93D19726E0CF0190
:100330000C9494041F93CF93DF93EC01162F6AE182
:1003400071E089A99AA90E94E9054AE050E0612F6D
:1003500089A99AA90E94BE0661E271E089A99AA9B9
:100360000E94E90562E370E080E090E0DF91CF91C8
:100370001F910C948D021F93CF93DF93EC01162FE6
:100380008D81882389F189A99AA9DC01ED91FC91DD
:100390000480F581E02D0995892BA9F307C0263744
:1003A000310519F12835310509F41D8289A99AA969
:1003B000DC01ED91FC910480F581E02D0995181682
:1003C000190694F489A99AA9DC01ED91FC910680A3
:1003D000F781E02D09959C01332723363105F9F685
:1003E000612FCE010E949A0183E6DF91CF911F9188
:1003F00008950F931F93CF93DF931F92CDB7DEB76E
:100400008C01662349F081E0F801858360E0C80132
:1004100049830E94BB014981F80145830F90DF9118
:10042000CF911F910F9108951F920F920FB60F92C7
:1004300011242F933F938F939F93AF93BF938091FA
:10044000C8019091C901A091CA01B091CB0130912E
:10045000C70123E0230F2D3720F40196A11DB11D04
:1004600005C026E8230F0296A11DB11D2093C701E8
:100470008093C8019093C901A093CA01B093CB01A6
:100480008091CC019091CD01A091CE01B091CF018E
:100490000196A11DB11D8093CC019093CD01A09335
:1004A000CE01B093CF01BF91AF919F918F913F91BA
:1004B0002F910F900FBE0F901F9018952FB7F894A3
:1004C0006091C8017091C9018091CA019091CB01DE
:1004D0002FBF08953FB7F8948091CC019091CD0142
:1004E000A091CE01B091CF0126B5A89B05C02F3FAA
:1004F00019F00196A11DB11D3FBF6627782F892FE6
:100500009A2F620F711D811D911D42E0660F771FAA
:10051000881F991F4A95D1F70895CF92DF92EF92E5
:10052000FF92CF93DF936B017C010E946A02EB0183
:10053000C114D104E104F10489F00E94C5060E94AF
:100540006A026C1B7D0B683E734090F381E0C81A11
:10055000D108E108F108C851DC4FEACFDF91CF9113
:10056000FF90EF90DF90CF900895789484B58260EB
:1005700084BD84B5816084BD85B5826085BD85B547
:10058000816085BDEEE6F0E0808181608083E1E8F6
:10059000F0E010828081826080838081816080832E
:1005A000E0E8F0E0808181608083E1EBF0E0808131
:1005B00084608083E0EBF0E0808181608083EAE703
:1005C000F0E080818460808380818260808380818C
:1005D000816080838081806880831092C10008954B
:1005E000833081F028F4813099F08230A1F00895B1
:1005F0008730A9F08830B9F08430D1F48091800040
:100600008F7D03C0809180008F7780938000089554
:1006100084B58F7702C084B58F7D84BD08958091A5
:10062000B0008F7703C08091B0008F7D8093B000C1
:100630000895CF93DF9390E0FC01E458FF4F24919D
:10064000FC01E057FF4F8491882349F190E0880F27
:10065000991FFC01E854FF4FA591B49182559F4F1B
:10066000FC01C591D4919FB7611108C0F8948C9199
:10067000209582238C93888182230AC0623051F4B2
:10068000F8948C91322F309583238C938881822B20
:10069000888304C0F8948C91822B8C939FBFDF9148
:1006A000CF9108950F931F93CF93DF931F92CDB7F0
:1006B000DEB7282F30E0F901E859FF4F8491F901A6
:1006C000E458FF4F1491F901E057FF4F04910023C4
:1006D000C9F0882321F069830E94F0026981E02F2C
:1006E000F0E0EE0FFF1FE255FF4FA591B4919FB7C9
:1006F000F8948C91611103C01095812301C0812B66
:100700008C939FBF0F90DF91CF911F910F91089510
:10071000CF93DF93282F30E0F901E859FF4F849100
:10072000F901E458FF4FD491F901E057FF4FC4910C
:10073000CC2391F081110E94F002EC2FF0E0EE0F3B
:10074000FF1FEC55FF4FA591B4912C912D2381E013
:1007500090E021F480E002C080E090E0DF91CF9152
:100760000895FC01818D228D90E0805C9F4F821B5B
:1007700091098F7399270895FC01918D828D9817A7
:1007800031F0828DE80FF11D858D90E008958FEF97
:100790009FEF0895FC01918D828D981761F0828DF5
:1007A000DF01A80FB11D5D968C91928D9F5F9F73A5
:1007B000928F90E008958FEF9FEF08958EE495E07B
:1007C000892B49F080E090E0892B29F00E944E05AA
:1007D00081110C9400000895FC01848DDF01A80FA5
:1007E000B11DA35ABF4F2C91848D90E001968F7359
:1007F0009927848FA689B7892C93A089B1898C9178
:1008000080648C93938D848D981306C00288F3893D
:10081000E02D80818F7D80830895CF93DF93EC015D
:10082000888D8823C9F0EA89FB89808185FD05C010
:10083000A889B9898C9186FD0FC00FB607FCF5CF4A
:10084000808185FFF2CFA889B9898C9185FFEDCF92
:10085000CE010E94EC03E7CFDF91CF910895CF92B4
:10086000DF92FF920F931F93CF93DF931F92CDB729
:10087000DEB76C0181E0D60158968C9358975B9651
:100880009C915B975C968C915C97981307C05096EF
:10089000ED91FC915197808185FD2EC0F601038D6D
:1008A00010E00F5F1F4F0F731127F02EF601848D9C
:1008B000F81211C00FB607FCF9CFD6015096ED9192
:1008C000FC915197808185FFF1CFC60169830E9419
:1008D000EC036981EBCF838DE80FF11DE35AFF4FE5
:1008E0006083D6015B960C935B975296ED91FC91D9
:1008F0005397808180620CC0D6015696ED91FC9191
:10090000579760835096ED91FC9151978081806458
:10091000808381E090E00F90DF91CF911F910F9144
:10092000FF90DF90CF900895BF92CF92DF92EF9229
:10093000FF92CF93DF93EC016A017B01B22EE8892D
:10094000F98982E08083411581EE580761057105C0
:10095000A1F060E079E08DE390E0A70196010E94AC
:10096000C6062150310941095109569547953795D9
:100970002795211580E1380798F0E889F9891082D8
:1009800060E874E88EE190E0A70196010E94C60637
:1009900021503109410951095695479537952795B9
:1009A000EC85FD853083EE85FF852083188EEC89EC
:1009B000FD89B082EA89FB89808180618083EA8930
:1009C000FB89808188608083EA89FB8980818068D7
:1009D0008083EA89FB8980818F7D8083DF91CF913D
:1009E000FF90EF90DF90CF90BF9008951F920F92ED
:1009F0000FB60F9211242F938F939F93EF93FF9332
:100A0000E091E001F091E1018081E091E601F09157
:100A1000E70182FD12C090818091E9018F5F8F73A1
:100A20002091EA01821751F0E091E901F0E0E053F2
:100A3000FE4F958F8093E90101C08081FF91EF9176
:100A40009F918F912F910F900FBE0F901F9018952F
:100A50001F920F920FB60F9211242F933F934F9333
:100A60005F936F937F938F939F93AF93BF93EF9316
:100A7000FF9380ED91E00E94EC03FF91EF91BF9115
:100A8000AF919F918F917F916F915F914F913F9126
:100A90002F910F900FBE0F901F90189580ED91E051
:100AA0000E94B10321E0892B09F420E0822F0895F0
:100AB0001092D3011092D20188EE93E0A0E0B0E052
:100AC0008093D4019093D501A093D601B093D70120
:100AD00086E791E09093D1018093D00185EC90E07E
:100AE0009093DD018093DC0184EC90E09093DF0132
:100AF0008093DE0180EC90E09093E1018093E0012F
:100B000081EC90E09093E3018093E20182EC90E02D
:100B10009093E5018093E40186EC90E09093E701E7
:100B20008093E6011092E9011092EA011092EB0124
:100B30001092EC01089508950E94B5020E949B0551
:100B40000E948C00CEEDD3E00E9448012097E1F393
:100B50000E94DE03F9CFCF92DF92EF92FF920F93C4
:100B60001F93CF93DF936C017A01EB01E60EF71E22
:100B700000E010E0CE15DF0561F06991D601ED913E
:100B8000FC910190F081E02DC6010995080F191F15
:100B9000F1CFC801DF91CF911F910F91FF90EF909E
:100BA000DF90CF9008956115710581F0DB010D9004
:100BB0000020E9F7AD0141505109461B570BDC01FC
:100BC000ED91FC910280F381E02D099480E090E0AA
:100BD00008950C94D305DC01ED91FC910190F08116
:100BE000E02D099467E271E00C94D3058F929F92F7
:100BF000AF92BF92CF92DF92EF92FF920F931F932B
:100C0000CF93DF93CDB7DEB7A1970FB6F894DEBFD1
:100C10000FBECDBF7C01C42EE52FCB01D22E19A271
:100C200021E02D1510F02AE0D22E8E010F5D1F4F0E
:100C30008D2C912CA12CB12C6C2D7E2FA501940113
:100C40000E94C6068C2DD29E8019112401501109D4
:100C50008A3014F4805D01C0895CF801808321151D
:100C600031054105510521F0C22EE32FCA01E4CF21
:100C7000B801C7010E94D305A1960FB6F894DEBF54
:100C80000FBECDBFDF91CF911F910F91FF90EF90DD
:100C9000DF90CF90BF90AF909F908F900895CF92AC
:100CA000DF92EF92FF920F931F93CF93DF93EC01AC
:100CB0006A017B012115310579F4E881F981019000
:100CC000F081E02D642FDF91CF911F910F91FF9064
:100CD000EF90DF90CF9009942A303105E9F477FF47
:100CE0001AC06DE20E94EB058C0144275527BA011A
:100CF0004C195D096E097F092AE0CE010E94F605B4
:100D0000800F911FDF91CF911F910F91FF90EF9076
:100D1000DF90CF9008952AE0B701A601CE01DF91C0
:100D2000CF911F910F91FF90EF90DF90CF900C9497
:100D3000F6050F931F93CF93DF93EC019A01AB015C
:100D4000662757FD6095762F0E944F068C01CE01D5
:100D50000E94F205800F911FDF91CF911F910F919B
:100D600008952115310541F4DC01ED91FC910190CC
:100D7000F081E02D642F09940C94F6059A01462F1A
:100D800050E060E070E00C94B1060895A1E21A2EE4
:100D9000AA1BBB1BFD010DC0AA1FBB1FEE1FFF1F1F
:100DA000A217B307E407F50720F0A21BB30BE40B6F
:100DB000F50B661F771F881F991F1A9469F76095B6
:100DC0007095809590959B01AC01BD01CF01089570
:100DD000EE0FFF1F0590F491E02D0994F894FFCFDA
:100DE000060708020B0A0900564D4450565F317C35
:100DF000315F564D4450560D0A00564D4450435FE6
:100E0000005F564D4450430D0A004572726F723AAE
:100E100020417474656D707420746F207365742044
:100E20006120726561642D6F6E6C792076617269E4
:100E300061626C65206F72206461746120747970E6
:100E400065206E6F7420737570706F727465640DB9
:100E50000A00000000002F04AB05B103CA03BC0365
:100E60000D046E616E00696E66006F7666002E007E
:00000001FF
