:100000000C9462000C948A000C948A000C948A0070
:100010000C948A000C948A000C948A000C948A0038
:100020000C948A000C948A000C948A000C948A0028
:100030000C948A000C948A000C948A000C948A0018
:100040000C949D010C948A000C9449040C947B043C
:100050000C948A000C948A000C948A000C948A00F8
:100060000C948A000C948A00000000080002010031
:100070000003040700000000000000000102040863
:100080001020408001020408102001020408102002
:10009000040404040404040402020202020203032E
:1000A00003030303000000002300260029000000D2
:1000B0000000250028002B0000000000240027007D
:1000C0002A00AB0411241FBECFEFD8E0DEBFCDBFA6
:1000D00011E0A0E0B1E0E6E8FCE002C005900D927E
:1000E000A239B107D9F722E0A2E9B1E001C01D921F
:1000F000AF36B207E1F710E0C4ECD0E004C02297BD
:10010000FE010E943D06C23CD107C9F70E94EF04E0
:100110000C9441060C94000040ED57E060E070E064
:1001200082E991E00E94040120E835E240E050E0DD
:1001300062ED71E082E991E00E94170182E991E0AD
:100140000E94010160E071E08091C3019091C401BF
:100150000E943C056AE070E080E090E00E94160298
:1001600041E060E082E991E00E94820126E040E8FF
:1001700055E260E070E082ED91E00E94E70362E00A
:1001800083E00C94A20262E171E082ED91E00E94B2
:100190003C0583E00E94DB024AE050E0BC0182EDB6
:1001A00091E00E94EC0568EE73E080E090E00C9432
:1001B00016020F931F93CF93DF93EC01662359F040
:1001C0000E94E70169837A838B839C83DF91CF91BF
:1001D0001F910F9108950E94E70109811A812B81D7
:1001E0003C81601B710B820B930B6233710581059F
:1001F000910530F763E070E080E090E00E94160225
:10020000EACF60E00C94D900FC0113AA14AA15AA45
:1002100016AA1182128213821482411551056105BA
:10022000710521F0CB01BA010C9416020895FB016F
:10023000BA01A901DC01D296FC93EE93D19726E096
:10024000CF010C94E7031F93CF93DF93EC01162F9C
:100250006BE171E089A99AA90E943C054AE050E04F
:10026000612F89A99AA90E94110662E271E089A909
:100270009AA90E943C0562E370E080E090E0DF9183
:10028000CF911F910C9416021F93CF93DF93EC0133
:10029000162F8D81882389F189A99AA9DC01ED9116
:1002A000FC910480F581E02D0995892BA9F307C005
:1002B0002637310519F12835310509F41D8289A940
:1002C0009AA9DC01ED91FC910480F581E02D09955E
:1002D0001816190694F489A99AA9DC01ED91FC91EC
:1002E0000680F781E02D09959C01332723363105DF
:1002F000F9F6612FCE010E94230183E6DF91CF91B1
:100300001F9108950F931F93CF93DF931F92CDB743
:10031000DEB78C01662349F081E0F801858360E057
:10032000C80149830E9444014981F80145830F9027
:10033000DF91CF911F910F9108951F920F920FB6E9
:100340000F9211242F933F938F939F93AF93BF935B
:100350008091CA019091CB01A091CC01B091CD01C7
:100360003091C90123E0230F2D3720F40196A11D00
:10037000B11D05C026E8230F0296A11DB11D2093D3
:10038000C9018093CA019093CB01A093CC01B09393
:10039000CD018091CE019091CF01A091D001B0917B
:1003A000D1010196A11DB11D8093CE019093CF0183
:1003B000A093D001B093D101BF91AF919F918F9144
:1003C0003F912F910F900FBE0F901F9018952FB750
:1003D000F8946091CA017091CB018091CC01909109
:1003E000CD012FBF08953FB7F8948091CE01909131
:1003F000CF01A091D001B091D10126B5A89B05C035
:100400002F3F19F00196A11DB11D3FBF6627782F20
:10041000892F9A2F620F711D811D911D42E0660F79
:10042000771F881F991F4A95D1F70895CF92DF92C1
:10043000EF92FF92CF93DF936B017C010E94F30157
:10044000EB01C114D104E104F10489F00E94180603
:100450000E94F3016C1B7D0B683E734090F381E0BA
:10046000C81AD108E108F108C851DC4FEACFDF9182
:10047000CF91FF90EF90DF90CF900895789484B55E
:10048000826084BD84B5816084BD85B5826085BD90
:1004900085B5816085BDEEE6F0E080818160808376
:1004A000E1E8F0E010828081826080838081816059
:1004B0008083E0E8F0E0808181608083E1EBF0E020
:1004C000808184608083E0EBF0E0808181608083C4
:1004D000EAE7F0E0808184608083808182608083AD
:1004E0008081816080838081806880831092C100D8
:1004F0000895833081F028F4813099F08230A1F0A2
:1005000008958730A9F08830B9F08430D1F4809113
:1005100080008F7D03C0809180008F778093800062
:10052000089584B58F7702C084B58F7D84BD08950A
:100530008091B0008F7703C08091B0008F7D809351
:10054000B0000895CF93DF9390E0FC01E458FF4F93
:100550002491FC01E057FF4F8491882349F190E0FA
:10056000880F991FFC01E854FF4FA591B491825563
:100570009F4FFC01C591D4919FB7611108C0F894B9
:100580008C91209582238C93888182230AC06230CB
:1005900051F4F8948C91322F309583238C93888179
:1005A000822B888304C0F8948C91822B8C939FBFFC
:1005B000DF91CF910895CF93DF93282F30E0F90199
:1005C000E859FF4F8491F901E458FF4FD491F901A4
:1005D000E057FF4FC491CC2391F081110E94790222
:1005E000EC2FF0E0EE0FFF1FEC55FF4FA591B491FB
:1005F0002C912D2381E090E021F480E002C080E086
:1006000090E0DF91CF910895FC01818D228D90E0E3
:10061000805C9F4F821B91098F7399270895FC017D
:10062000918D828D981731F0828DE80FF11D858DA7
:1006300090E008958FEF9FEF0895FC01918D828DDA
:10064000981761F0828DDF01A80FB11D5D968C9126
:10065000928D9F5F9F73928F90E008958FEF9FEF31
:10066000089581EA94E0892B49F080E090E0892B9D
:1006700029F00E94A10481110C9400000895FC014E
:10068000848DDF01A80FB11DA35ABF4F2C91848D1B
:1006900090E001968F739927848FA689B7892C9350
:1006A000A089B1898C9180648C93938D848D9813EB
:1006B00006C00288F389E02D80818F7D80830895B4
:1006C000CF93DF93EC01888D8823C9F0EA89FB89F9
:1006D000808185FD05C0A889B9898C9186FD0FC0F0
:1006E0000FB607FCF5CF808185FFF2CFA889B989C5
:1006F0008C9185FFEDCFCE010E943F03E7CFDF91C4
:10070000CF910895CF92DF92FF920F931F93CF93D3
:10071000DF931F92CDB7DEB76C0181E0D60158960A
:100720008C9358975B969C915B975C968C915C97A9
:10073000981307C05096ED91FC915197808185FDEB
:100740002EC0F601038D10E00F5F1F4F0F731127AE
:10075000F02EF601848DF81211C00FB607FCF9CF08
:10076000D6015096ED91FC915197808185FFF1CF94
:10077000C60169830E943F036981EBCF838DE80F37
:10078000F11DE35AFF4F6083D6015B960C935B9794
:100790005296ED91FC915397808180620CC0D601F6
:1007A0005696ED91FC91579760835096ED91FC9190
:1007B000519780818064808381E090E00F90DF9189
:1007C000CF911F910F91FF90DF90CF900895BF922E
:1007D000CF92DF92EF92FF92CF93DF93EC016A0109
:1007E0007B01B22EE889F98982E08083411581EE90
:1007F000580761057105A1F060E079E08DE390E0B4
:10080000A70196010E941906215031094109510999
:100810005695479537952795211580E1380798F02B
:10082000E889F989108260E874E88EE190E0A70118
:1008300096010E9419062150310941095109569526
:10084000479537952795EC85FD853083EE85FF85A7
:100850002083188EEC89FD89B082EA89FB8980812A
:1008600080618083EA89FB89808188608083EA894E
:10087000FB89808180688083EA89FB8980818F7D04
:100880008083DF91CF91FF90EF90DF90CF90BF906A
:1008900008951F920F920FB60F9211242F938F93EA
:1008A0009F93EF93FF93E091E201F091E301808148
:1008B000E091E801F091E90182FD12C09081809100
:1008C000EB018F5F8F732091EC01821751F0E09163
:1008D000EB01F0E0EE52FE4F958F8093EB0101C0EB
:1008E0008081FF91EF919F918F912F910F900FBE7B
:1008F0000F901F9018951F920F920FB60F92112410
:100900002F933F934F935F936F937F938F939F9317
:10091000AF93BF93EF93FF9382ED91E00E943F036B
:10092000FF91EF91BF91AF919F918F917F916F91C7
:100930005F914F913F912F910F900FBE0F901F909D
:10094000189582ED91E00E94040321E0892B09F4BF
:1009500020E0822F08951092D5011092D40188EEE4
:1009600093E0A0E0B0E08093D6019093D701A093EC
:10097000D801B093D90187E791E09093D301809398
:10098000D20185EC90E09093DF018093DE0184EC4E
:1009900090E09093E1018093E00180EC90E09093EF
:1009A000E3018093E20181EC90E09093E501809374
:1009B000E40182EC90E09093E7018093E60186ECFD
:1009C00090E09093E9018093E8011092EB0110927E
:1009D000EC011092ED011092EE01089508950E942D
:1009E0003E020E94EE040E948C00C1E3D3E00E940C
:1009F000C3002097E1F30E943103F9CFCF92DF9239
:100A0000EF92FF920F931F93CF93DF936C017A01C4
:100A1000EB01E60EF71E00E010E0CE15DF0561F0F9
:100A20006991D601ED91FC910190F081E02DC60114
:100A30000995080F191FF1CFC801DF91CF911F91C0
:100A40000F91FF90EF90DF90CF90089561157105A1
:100A500081F0DB010D900020E9F7AD014150510913
:100A6000461B570BDC01ED91FC910280F381E02DD8
:100A7000099480E090E008950C942605DC01ED9146
:100A8000FC910190F081E02D099468E271E00C94F2
:100A900026058F929F92AF92BF92CF92DF92EF92F4
:100AA000FF920F931F93CF93DF93CDB7DEB7A1973C
:100AB0000FB6F894DEBF0FBECDBF7C01C42EE52F6C
:100AC000CB01D22E19A221E02D1510F02AE0D22E52
:100AD0008E010F5D1F4F8D2C912CA12CB12C6C2DF4
:100AE0007E2FA50194010E9419068C2DD29E80199B
:100AF0001124015011098A3014F4805D01C0895C11
:100B0000F8018083211531054105510521F0C22EE0
:100B1000E32FCA01E4CFB801C7010E942605A196C0
:100B20000FB6F894DEBF0FBECDBFDF91CF911F91FE
:100B30000F91FF90EF90DF90CF90BF90AF909F907C
:100B40008F900895CF92DF92EF92FF920F931F93B1
:100B5000CF93DF93EC016A017B012115310579F414
:100B6000E881F9810190F081E02D642FDF91CF9130
:100B70001F910F91FF90EF90DF90CF9009942A3052
:100B80003105E9F477FF1AC06DE20E943E058C0141
:100B900044275527BA014C195D096E097F092AE0DF
:100BA000CE010E944905800F911FDF91CF911F91C7
:100BB0000F91FF90EF90DF90CF9008952AE0B7015A
:100BC000A601CE01DF91CF911F910F91FF90EF9081
:100BD000DF90CF900C9449050F931F93CF93DF9331
:100BE000EC019A01AB01662757FD6095762F0E94B4
:100BF000A2058C01CE010E944505800F911FDF9157
:100C0000CF911F910F9108952115310541F4DC0119
:100C1000ED91FC910190F081E02D642F09940C94EA
:100C200049059A01462F50E060E070E00C940406FC
:100C30000895A1E21A2EAA1BBB1BFD010DC0AA1F1D
:100C4000BB1FEE1FFF1FA217B307E407F50720F035
:100C5000A21BB30BE40BF50B661F771F881F991FB0
:100C60001A9469F760957095809590959B01AC01F9
:100C7000BD01CF010895EE0FFF1F0590F491E02D07
:060C80000994F894FFCF77
:100C8600564D4450565F317C315F564D4450560D9B
:100C96000A006D61676E65743A2000564D445043F4
:100CA6005F005F564D4450430D0A004572726F72E5
:100CB6003A20417474656D707420746F2073657486
:100CC600206120726561642D6F6E6C792076617289
:100CD6006961626C65206F72206461746120747949
:100CE6007065206E6F7420737570706F72746564B2
:100CF6000D0A00000000008203FE0404031D030F1A
:100D06000360036E616E00696E66006F7666002E84
:020D16000000DB
:00000001FF
