:100000000C945E000C9486000C9486000C94860080
:100010000C9486000C9486000C9486000C94D208F4
:100020000C9486000C9486000C9486000C94860038
:100030000C9486000C9486000C9486000C94860028
:100040000C9473020C9486000C942C050C945E05A1
:100050000C9486000C9486000C9486000C94860008
:100060000C9486000C948600000000080002010039
:100070000003040700000000000000000102040863
:100080001020408001020408102001020408102002
:10009000040404040404040402020202020203032E
:1000A0000303030300000000250028002B000000CC
:1000B0000000240027002A0002008E0511241FBE24
:1000C000CFEFD8E0DEBFCDBF11E0A0E0B1E0E4E2C9
:1000D000F3E102C005900D92AC37B107D9F722E0E9
:1000E000ACE7B1E001C01D92AE36B207E1F710E017
:1000F000CCEBD0E004C02297FE010E947D09CA3BF0
:10010000D107C9F70E94D2050C9490090C94000005
:1001100040ED57E060E070E08CE791E00E94DA018A
:1001200020E835E240E050E06CEB71E08CE791E0D4
:100130000E94ED018CE791E00E94D70161E071E03F
:100140008091AD019091AE010E941F066AE070E0BF
:1001500080E090E00E94EC0241E060E08CE791E0FA
:100160000E94580226E040E855E260E070E08CEB27
:1001700091E00E94CA0461E085E00C94780324EFCA
:1001800031E040E050E060EE76E085E00E948E06CF
:1001900064EF71E080E090E00E94EC0224EF31E037
:1001A00040E050E060EE76E085E00E948E0664EF6D
:1001B00071E080E090E00E94EC0224EF31E040E04A
:1001C00050E068EB77E085E00E948E0664EF71E016
:1001D00080E090E00E94EC0224EF31E040E050E04B
:1001E00060E276E085E00E948E0664EF71E080E0D8
:1001F00090E00E94EC0224EF31E040E050E060EE3D
:1002000076E085E00E948E0664EF71E080E090E089
:100210000E94EC0224EF31E040E050E068EB77E030
:1002200085E00E948E0668EC70E080E090E00E941D
:10023000EC0224EF31E040E050E06DE278E085E050
:100240000E948E066CE271E080E090E00E94EC0279
:1002500024EF31E040E050E068EB77E085E00E9479
:100260008E0664EF71E080E090E00E94EC0224EFE3
:1002700031E040E050E060E276E085E00E948E06EA
:1002800064EF71E080E090E00E94EC0224EF31E046
:1002900040E050E060EE76E085E00E948E0664EF7C
:1002A00071E080E090E00E94EC0224EF31E040E059
:1002B00050E068EB77E085E00E948E0668EC70E025
:1002C00080E090E00E94EC0224EF31E040E050E05A
:1002D0006DE278E085E00E948E066CE271E080E0DD
:1002E00090E00E94EC0224EF31E040E050E068EB47
:1002F00077E085E00E948E0664EF71E080E090E098
:100300000E94EC0224EF31E040E050E060EE76E045
:1003100085E00E948E0664EF71E080E090E00E942C
:10032000EC0224EF31E040E050E060E276E085E06E
:100330000E948E0664EF71E080E090E00E94EC0283
:1003400024EF31E040E050E060EE76E085E00E948E
:100350008E0664EF71E080E090E00C94EC020F9365
:100360001F93CF93DF93EC01662359F00E94BD02E7
:1003700069837A838B839C83DF91CF911F910F9147
:1003800008950E94BD0209811A812B813C81601B66
:10039000710B820B930B623371058105910530F768
:1003A00063E070E080E090E00E94EC02EACF60E061
:1003B0000C94AF01FC0113AA14AA15AA16AA118263
:1003C000128213821482411551056105710521F0D5
:1003D000CB01BA010C94EC020895FB01BA01A9010A
:1003E000DC01D296FC93EE93D19726E0CF010C94DA
:1003F000CA041F93CF93DF93EC01162F63E171E0E2
:1004000089A99AA90E941F064AE050E0612F89A994
:100410009AA90E9487066AE171E089A99AA90E94B7
:100420001F0662E370E080E090E0DF91CF911F91C2
:100430000C94EC021F93CF93DF93EC01162F8D8168
:10044000882389F189A99AA9DC01ED91FC910480A6
:10045000F581E02D0995892BA9F307C026373105D1
:1004600019F12835310509F41D8289A99AA9DC0101
:10047000ED91FC910480F581E02D0995181619067F
:1004800094F489A99AA9DC01ED91FC910680F78189
:10049000E02D09959C01332723363105F9F6612FAC
:1004A000CE010E94F90183E6DF91CF911F9108955B
:1004B0000F931F93CF93DF931F92CDB7DEB78C01BD
:1004C000662349F081E0F801858360E0C801498333
:1004D0000E941A024981F80145830F90DF91CF9164
:1004E0001F910F9108951F920F920FB60F92112432
:1004F0002F933F938F939F93AF93BF938091B401BA
:100500009091B501A091B601B091B7013091B301BE
:1005100023E0230F2D3720F40196A11DB11D05C046
:1005200026E8230F0296A11DB11D2093B3018093ED
:10053000B4019093B501A093B601B093B701809137
:10054000B8019091B901A091BA01B091BB01019697
:10055000A11DB11D8093B8019093B901A093BA0178
:10056000B093BB01BF91AF919F918F913F912F911C
:100570000F900FBE0F901F9018952FB7F8946091B1
:10058000B4017091B5018091B6019091B7012FBF70
:1005900008953FB7F8948091B8019091B901A09166
:1005A000BA01B091BB0126B5A89B05C02F3F19F039
:1005B0000196A11DB11D3FBF6627782F892F9A2F65
:1005C000620F711D811D911D42E0660F771F881F0C
:1005D000991F4A95D1F70895CF92DF92EF92FF923B
:1005E000CF93DF936B017C010E94C902EB01C11420
:1005F000D104E104F10489F00E942E090E94C9028D
:100600006C1B7D0B683E734090F381E0C81AD108E3
:10061000E108F108C851DC4FEACFDF91CF91FF909C
:10062000EF90DF90CF900895789484B5826084BD78
:1006300084B5816084BD85B5826085BD85B58160E6
:1006400085BDEEE6F0E0808181608083E1E8F0E046
:100650001082808182608083808181608083E0E875
:10066000F0E0808181608083E1EBF0E08081846054
:100670008083E0EBF0E0808181608083EAE7F0E056
:1006800080818460808380818260808380818160BA
:1006900080838081806880831092C10008958330B8
:1006A00081F028F4813099F08230A1F008958730EC
:1006B000A9F08830B9F08430D1F4809180008F7D2A
:1006C00003C0809180008F7780938000089584B567
:1006D0008F7702C084B58F7D84BD08958091B0006E
:1006E0008F7703C08091B0008F7D8093B000089514
:1006F000CF93DF9390E0FC01E458FF4F2491FC017D
:10070000E057FF4F8491882349F190E0880F991FAB
:10071000FC01E255FF4FA591B4918C559F4FFC0110
:10072000C591D4919FB7611108C0F8948C91209520
:1007300082238C93888182230AC0623051F4F8941A
:100740008C91322F309583238C938881822B8883E0
:1007500004C0F8948C91822B8C939FBFDF91CF9132
:1007600008950F931F93CF93DF931F92CDB7DEB7FA
:10077000282F30E0F901E859FF4F8491F901E4583E
:10078000FF4F1491F901E057FF4F04910023C9F086
:10079000882321F069830E944F036981E02FF0E0F4
:1007A000EE0FFF1FEC55FF4FA591B4919FB7F89442
:1007B0008C91611103C01095812301C0812B8C9312
:1007C0009FBF0F90DF91CF911F910F910895FC0172
:1007D000818D228D90E0805C9F4F821B91098F73E9
:1007E00099270895FC01918D828D981731F0828DA3
:1007F000E80FF11D858D90E008958FEF9FEF08952C
:10080000FC01918D828D981761F0828DDF01A80F18
:10081000B11D5D968C91928D9F5F9F73928F90E03A
:1008200008958FEF9FEF089584E895E0892B49F0B4
:1008300080E090E0892B29F00E94840581110C94BE
:1008400000000895FC01848DDF01A80FB11DA35A9B
:10085000BF4F2C91848D90E001968F739927848FE0
:10086000A689B7892C93A089B1898C9180648C93D7
:10087000938D848D981306C00288F389E02D8081C2
:100880008F7D80830895CF93DF93EC01888D88233B
:10089000C9F0EA89FB89808185FD05C0A889B989ED
:1008A0008C9186FD0FC00FB607FCF5CF808185FFC8
:1008B000F2CFA889B9898C9185FFEDCFCE010E9436
:1008C0002204E7CFDF91CF910895CF92DF92FF927C
:1008D0000F931F93CF93DF931F92CDB7DEB76C01B9
:1008E00081E0D60158968C9358975B969C915B97C4
:1008F0005C968C915C97981307C05096ED91FC9193
:100900005197808185FD2EC0F601038D10E00F5FA9
:100910001F4F0F731127F02EF601848DF81211C0AE
:100920000FB607FCF9CFD6015096ED91FC91519787
:10093000808185FFF1CFC60169830E94220469810D
:10094000EBCF838DE80FF11DE35AFF4F6083D60193
:100950005B960C935B975296ED91FC915397808137
:1009600080620CC0D6015696ED91FC91579760833A
:100970005096ED91FC91519780818064808381E055
:1009800090E00F90DF91CF911F910F91FF90DF903A
:10099000CF900895BF92CF92DF92EF92FF92CF93C4
:1009A000DF93EC016A017B01B22EE889F98982E0CC
:1009B0008083411581EE580761057105A1F060E063
:1009C00079E08DE390E0A70196010E942F09215064
:1009D00031094109510956954795379527952115B4
:1009E00080E1380798F0E889F989108260E874E8B6
:1009F0008EE190E0A70196010E942F092150310954
:100A0000410951095695479537952795EC85FD8500
:100A10003083EE85FF852083188EEC89FD89B082B6
:100A2000EA89FB89808180618083EA89FB898081F2
:100A300088608083EA89FB89808180688083EA8975
:100A4000FB8980818F7D8083DF91CF91FF90EF9034
:100A5000DF90CF90BF9008951F920F920FB60F9224
:100A600011242F938F939F93EF93FF93E091CC01E9
:100A7000F091CD018081E091D201F091D30182FD0E
:100A800012C090818091D5018F5F8F732091D60124
:100A9000821751F0E091D501F0E0E454FE4F958FBC
:100AA0008093D50101C08081FF91EF919F918F913B
:100AB0002F910F900FBE0F901F9018951F920F92BD
:100AC0000FB60F9211242F933F934F935F936F9321
:100AD0007F938F939F93AF93BF93EF93FF938CEB91
:100AE00091E00E942204FF91EF91BF91AF919F91FD
:100AF0008F917F916F915F914F913F912F910F90C7
:100B00000FBE0F901F9018958CEB91E00E94E703A9
:100B100021E0892B09F420E0822F08951092BF0173
:100B20001092BE0188EE93E0A0E0B0E08093C00197
:100B30009093C101A093C201B093C3018FE691E0ED
:100B40009093BD018093BC0185EC90E09093C90126
:100B50008093C80184EC90E09093CB018093CA010C
:100B600080EC90E09093CD018093CC0181EC90E0FB
:100B70009093CF018093CE0182EC90E09093D101CD
:100B80008093D00186EC90E09093D3018093D201C2
:100B90001092D5011092D6011092D7011092D8016F
:100BA000089508950E9414030E94D1050E948800B0
:100BB000C4E1D4E00E94BF002097E1F30E94140436
:100BC000F9CFCF92DF92EF92FF920F931F93CF93C3
:100BD000DF936C017A01EB01E60EF71E00E010E0F6
:100BE000CE15DF0561F06991D601ED91FC91019080
:100BF000F081E02DC6010995080F191FF1CFC8013A
:100C0000DF91CF911F910F91FF90EF90DF90CF90E8
:100C100008956115710581F0DB010D900020E9F761
:100C2000AD0141505109461B570BDC01ED91FC9180
:100C30000280F381E02D099480E090E008950C9407
:100C400009068F929F92AF92BF92CF92DF92EF925E
:100C5000FF920F931F93CF93DF93CDB7DEB7A1978A
:100C60000FB6F894DEBF0FBECDBF7C01C42EE52FBA
:100C7000CB01D22E19A221E02D1510F02AE0D22EA0
:100C80008E010F5D1F4F8D2C912CA12CB12C6C2D42
:100C90007E2FA50194010E942F098C2DD29E8019D0
:100CA0001124015011098A3014F4805D01C0895C5F
:100CB000F8018083211531054105510521F0C22E2F
:100CC000E32FCA01E4CFB801C7010E940906A1962B
:100CD0000FB6F894DEBF0FBECDBFDF91CF911F914D
:100CE0000F91FF90EF90DF90CF90BF90AF909F90CB
:100CF0008F9008952115310541F4DC01ED91FC91AF
:100D00000190F081E02D642F09940C9421069A0142
:100D1000462F50E060E070E00C947A063F924F92CC
:100D20005F926F927F928F929F92AF92BF92CF927B
:100D3000DF92EF92FF920F931F93CF93DF9300D038
:100D400000D0CDB7DEB78B0129013A0190910001A7
:100D5000981721F09F3F09F0DAC104C0E8EBF0E0FA
:100D6000349081C080930001E8EBF0E0E491EF3F24
:100D700009F4CDC1E13031F1E23009F44BC0E111A9
:100D800071C014BC15BC94B5926094BD95B59160CA
:100D900095BD282F30E0F901E057FF4FE491F0E0D6
:100DA000EE0FFF1FEC55FF4F459154915093690290
:100DB00040936802F901E458FF4F249120936702A1
:100DC000312C53C0109280001092810090918100CC
:100DD0009860909381009091810091609093810040
:100DE000282F30E0F901E057FF4FE491F0E0EE0FDB
:100DF000FF1FEC55FF4F4591549150936202409371
:100E00006102F901E458FF4F2491209360023324DA
:100E100033942BC01092B0001092B1009091B000AA
:100E200092609093B0009091B10091609093B10066
:100E3000282F30E0F901E057FF4FE491F0E0EE0F8A
:100E4000FF1FEC55FF4F4591549150935B02409327
:100E50005A02F901E458FF4F24912093590252E0BD
:100E6000352E03C03E2E37FC52C161E00E9478034C
:100E70004801A12CB12C832D8D7F09F0C7C060E003
:100E800072E18AE790E0A50194010E94510929834B
:100E90003A834B835C8369017A0181E0C81AD108E7
:100EA000E108F1089FEFC916D104E104F10409F04B
:100EB00008F49AC060E472E48FE090E0A501940128
:100EC0000E94510969017A01E1E0CE1AD108E108D6
:100ED000F108F2E03F1219C08FEFC816D104E10407
:100EE000F10409F008F48AC060E970ED83E090E055
:100EF000A50194010E94510969017A0191E0C91A82
:100F0000D108E108F10883E001C082E0EFEFCE16DE
:100F1000D104E104F10409F008F467C068E478EE54
:100F200081E090E0A50194010E94510969017A01D4
:100F3000F1E0CF1AD108E108F1083320E1F082E0B6
:100F400038121BC09FEFC916D104E104F10409F067
:100F500008F4DBC064E274EF80E090E0A501940146
:100F60000E94510969017A01E1E0CE1AD108E10835
:100F7000F10885E003C083E001C084E0FFEFCF16F5
:100F8000D104E104F10489F180F162E17AE780E0C3
:100F900090E0A50194010E94510969017A0181E064
:100FA000C81AD108E108F108311002C084E001C07C
:100FB00086E09FEFC916D104E104F104B1F0A8F076
:100FC000C980DA80EB80FC809AE0F594E794D794AE
:100FD000C7949A95D1F7E1E0CE1AD108E108F1085B
:100FE000332031F087E00BC081E0332011F007C0DF
:100FF00085E095B5987F982B95BD38C082E090919B
:10100000B100987F982B9093B10030C060E072E1FE
:101010008AE790E0A50194010E94510969017A01D3
:10102000F1E0CF1AD108E108F108C114D10481E040
:10103000E806F10488F068E478EE81E090E0A5012C
:1010400094010E94510969017A0191E0C91AD108FD
:10105000E108F10893E001C091E0E1E03E1206C032
:1010600080918100887F892B8093810041145104F5
:101070006104710471F0D801AA0FBB1FA301920192
:101080000E94700928EE33E040E050E00E942F09F2
:1010900003C02FEF3FEFA901F1E03F16A1F082E07E
:1010A000381619F1311033C0C7BC20936A0230934F
:1010B0006B0240936C0250936D0280916E008260CF
:1010C00080936E0024C0D0928900C0928800209343
:1010D00063023093640240936502509366028091EC
:1010E0006F00826080936F0012C0C092B3002093A3
:1010F0005C0230935D0240935E0250935F028091E8
:10110000700082608093700002C084E078CF0F90FE
:101110000F900F900F90DF91CF911F910F91FF9043
:10112000EF90DF90CF90BF90AF909F908F907F9087
:101130006F905F904F903F900895813039F018F094
:10114000823051F0089510926E00089580916F00E2
:101150008D7F80936F000895809170008D7F8093C4
:10116000700081E08093B0008091B100887F84603E
:101170008093B1001092B3000895CF93C82F80914F
:1011800000018C1307C0E8EBF0E084919FEF90938F
:10119000000101C08FEF0E949D0860E08C2FCF916D
:1011A0000C94B1031F920F920FB60F9211242F933C
:1011B0003F934F935F936F937F938F939F93AF93DF
:1011C000BF93EF93FF9380915C0290915D02A09199
:1011D0005E02B0915F02892B8A2B8B2B51F190918B
:1011E0005902E0915A02F0915B0280818927808345
:1011F00080915C0290915D02A0915E02B0915F02CD
:10120000181619061A061B06C4F480915C02909108
:101210005D02A0915E02B0915F020197A109B10940
:1012200080935C0290935D02A0935E02B0935F0294
:1012300004C0809100010E94BD08FF91EF91BF9111
:10124000AF919F918F917F916F915F914F913F915E
:101250002F910F900FBE0F901F9018950895A1E247
:101260001A2EAA1BBB1BFD010DC0AA1FBB1FEE1F20
:10127000FF1FA217B307E407F50720F0A21BB30B6B
:10128000E40BF50B661F771F881F991F1A9469F7E7
:1012900060957095809590959B01AC01BD01CF0143
:1012A0000895052E97FB1EF400940E94680957FDCF
:1012B00007D00E942F0907FC03D04EF40C94680954
:1012C00050954095309521953F4F4F4F5F4F089572
:1012D00090958095709561957F4F8F4F9F4F0895A2
:1012E0000E948109A59F900DB49F900DA49F800D31
:1012F000911D11240895EE0FFF1F0590F491E02D2C
:101300000994A29FB001B39FC001A39F700D811DDE
:101310001124911DB29F700D811D1124911D0895FE
:04132000F894FFCF6F
:10132400FF564D4450565F317C315F564D44505604
:101334000D0A00564D4450435F005F564D445043E0
:101344000D0A004572726F723A20417474656D70B3
:101354007420746F20736574206120726561642D3C
:101364006F6E6C79207661726961626C65206F7250
:1013740020646174612074797065206E6F742073C9
:101384007570706F727465640D0A0000000000656A
:0C13940004E105E7030004F20343040039
:00000001FF
